:100000000C9452000C946F000C946F000C946F00D1
:100010000C946F000C946F000C946F000C946F00A4
:100020000C946F000C946F000C946F000C946F0094
:100030000C946F000C946F000C946F000C946F0084
:100040000C946F000C946F000C944A020C946F0097
:100050000C946F000C94A6000C946F000C946F002D
:100060000C946F000C946F008F01940199019E0114
:10007000A301A801AD01B201B701BC01C801CD01C6
:10008000D201D701DC01E101E601EB01F001F5014C
:10009000010206020B02100215021A021F022402BC
:1000A00029022E0211241FBECFEFD8E0DEBFCDBF44
:1000B00011E0A0E0B1E0E4E7F5E002C005900D92A8
:1000C000AA3FB107D9F722E0AAEFB1E001C01D9223
:1000D000A230B207E1F70E94DC000C94B8020C9445
:1000E00000008AB18E7F8AB98AB182608AB9109283
:1000F000C000E1ECF0E01082808188698083E2EC4E
:10010000F0E0108280818660808387E690E09093A3
:10011000C5008093C4000895ECE7F0E086E080839A
:1001200080818064808380818F77808380818062FA
:100130008083EAE7F0E0108280818860808380819C
:100140008760808380818068808308951F920F92EA
:100150000FB60F9211248F939F93EF93FF9380918B
:10016000790090E09093010280930002EAE7F0E0CA
:10017000808180618083FF91EF919F918F910F909B
:100180000FBE0F901F9018959091C00095FFFCCF67
:100190008093C6000895AC0120E007C09091C00094
:1001A00095FFFCCF3093C6002F5FFA01E20FF11DDF
:1001B00030813111F3CF08958FE384B98AB1806C17
:1001C0008AB90E948C000E9471007894EAE7F0E0FE
:1001D0008081806480838091FD019091FE01892B54
:1001E00039F58AE091E00E94CB008AE00E94C400C9
:1001F0008DE00E94C4008AE00E94C4008EE391E07A
:100200000E94CB008AE00E94C4008DE00E94C400DE
:100210008AE691E00E94CB008AE00E94C4008DE053
:100220000E94C40081E090E09093FE018093FD0164
:100230008091FA01882351F28091FA01813321F0F3
:10024000823309F41AC1C2CF82E991E00E94CB0047
:1002500081EC91E00E94CB0080910002909101021C
:10026000282F2F73082E892F000C881F990B000C44
:10027000881F991F837025B92BB130E4839FC0017B
:100280001124922F9F73892B8BB9209100023091FA
:10029000010208EE13E0C901B8010E948A027B0145
:1002A00048E15CEF649FC001659F900D749F900DC5
:1002B0001124820F931F64E670E00E948A02FB0102
:1002C000E09EE001E19ED00DF09ED00D112444E6A9
:1002D000469FC001479F900D1124C80FD91FC90127
:1002E0008C1B9D0B6AE070E00E948A028B01CB019F
:1002F000880F991FAB01440F551F440F551F440F22
:10030000551F840F951F8C0F9D1FE901C81BD90B2A
:10031000EA30F105A8F5EC5CFF4F0C949E02809149
:1003200000010E94C4002CC0809101010E94C40001
:1003300027C0809102010E94C40022C08091030165
:100340000E94C4001DC0809104010E94C40018C016
:10035000809105010E94C40013C0809106010E9493
:10036000C4000EC0809107010E94C40009C08091A2
:1003700008010E94C40004C0809109010E94C400C9
:100380000A301105B0F5F801E25CFF4F0C949E02B3
:10039000809100010E94C4002CC0809101010E9444
:1003A000C40027C0809102010E94C40022C0809135
:1003B00003010E94C4001DC0809104010E94C4007A
:1003C00018C0809105010E94C40013C080910601ED
:1003D0000E94C4000EC0809107010E94C40009C0A1
:1003E000809108010E94C40004C0809109010E940C
:1003F000C400CA30D105B0F5FE01E85BFF4F0C9494
:100400009E02809100010E94C4002CC080910101D5
:100410000E94C40027C0809102010E94C40022C033
:10042000809103010E94C4001DC0809104010E94BC
:10043000C40018C0809105010E94C40013C08091BF
:1004400006010E94C4000EC0809107010E94C400F2
:1004500009C0809108010E94C40004C08091090174
:100460000E94C4001092FE011092FD011092FA0148
:1004700082E991E00E94CB00A9CE1092FA0185EEAC
:1004800091E00E94CB0081E090E09093FC0180938A
:10049000FB019CCE1F920F920FB60F9211242F9347
:1004A0003F938F939F938091C6008093FA01809130
:1004B000FB019091FC010197E1F42091FA012F7367
:1004C0008091FA01982F929596959695937025B9FB
:1004D0002BB130E4939FC0011124922F9F73892B7D
:1004E0008BB91092FC011092FB011092FE01109248
:1004F000FD018091C00085FFFCCF8091FA018093BF
:10050000C6009F918F913F912F910F900FBE0F903A
:100510001F90189597FB072E16F4009407D077FDCF
:1005200009D00E94A40207FC05D03EF49095819565
:100530009F4F0895709561957F4F0895EE0FFF1FAF
:100540000590F491E02D0994AA1BBB1B51E107C053
:10055000AA1FBB1FA617B70710F0A61BB70B881F53
:10056000991F5A95A9F780959095BC01CD010895E2
:04057000F894FFCF2D
:10057400303132333435363738390A0D20202020D3
:10058400202A2A2A2A2A2A2A2A2A2A2A2A2A2A48B3
:100594006F6C6120636F6D6F20657374612A2A2A02
:1005A4002A2A2A2A2A2A2A2A2A2A2A2A2A002020E5
:1005B4002020202020202020436F6C6F717565203F
:1005C400312070617261206C65657220706F746592
:1005D4006E63696F6D6574726F0020202020202087
:1005E40020202020436F6C6F71756520322070616C
:1005F400726120656E766961722041534349490AEC
:100604000D000A0D2D2D2D2D2D2D2D2D2D2D2D2DA6
:100614002D2D2D2D2D2D2D2D2D2D2D2D2D2D2D2D06
:100624002D2D2D2D2D2D2D2D2D2D2D2D2D2D0A0D39
:10063400004C6563747572612061637475616C202C
:10064400646520706F74656E63696F6D6574726F35
:100654002065733A000A0D496E67726573652075EB
:0A0664006E2076616C6F720A0D00C3
:00000001FF
