:100000000C9434000C9451000C9451000C94510049
:100010000C9451000C9451000C9451000C9451001C
:100020000C9451000C9451000C9451000C9451000C
:100030000C9451000C9451000C9451000C945100FC
:100040000C9451000C9451000C9424010C94510018
:100050000C9451000C9488000C9451000C945100A5
:100060000C9451000C94510011241FBECFEFD8E026
:10007000DEBFCDBF11E0A0E0B1E0ECECF2E002C0E9
:1000800005900D92A23FB107D9F721E0A2EFB1E0B0
:1000900001C01D92A93FB207E1F70E94B9000C947C
:1000A00064010C9400008AB18E7F8AB98AB18260A3
:1000B0008AB91092C000E1ECF0E01082808188697A
:1000C0008083E2ECF0E0108280818660808387E6A6
:1000D00090E09093C5008093C4000895ECE7F0E0B1
:1000E00086E0808380818064808380818F778083B5
:1000F000808180628083EAE7F0E0108280818860FE
:100100008083808187608083808180688083089578
:100110001F920F920FB60F9211248F93EF93FF93BC
:10012000809179008093F801EAE7F0E080818061B6
:100130008083FF91EF918F910F900FBE0F901F90D2
:1001400018959091C00095FFFCCF8093C60008954C
:10015000AC0120E007C09091C00095FFFCCF309328
:10016000C6002F5FFA01E20FF11D30813111F3CF8C
:1001700008958FE384B98AB1806C8AB90E946E00B9
:100180000E94530078948091F5019091F601892B9B
:1001900039F580E091E00E94A8008AE00E94A10069
:1001A0008DE00E94A1008AE00E94A1008FE291E010
:1001B0000E94A8008AE00E94A1008DE00E94A10098
:1001C0008BE591E00E94A8008AE00E94A1008DE0EA
:1001D0000E94A10081E090E09093F6018093F501E8
:1001E0008091F201882379F28091F201813319F034
:1001F0008233E9F0C8CF83E891E00E94A80082EB47
:1002000091E00E94A800EAE7F0E0808180648083AA
:1002100086ED91E00E94A80085E891E00E94A80088
:100220001092F6011092F5011092F201ACCF1092EB
:10023000F2018CED91E00E94A80081E090E09093A3
:10024000F4018093F3019FCF1F920F920FB60F928C
:1002500011242F933F938F939F938091C600809397
:10026000F2018091F3019091F4010197E1F4209162
:10027000F2012F738091F201982F929596959695A1
:10028000937025B92BB130E4939FC0011124922FB4
:100290009F73892B8BB91092F4011092F301109285
:1002A000F6011092F5018091C00085FFFCCF80918E
:1002B000F2018093C6009F918F913F912F910F90F3
:0C02C0000FBE0F901F901895F894FFCF10
:1002CC000A0D2A2A2A2A2A2A2A2A2A2A2A2A2A2ABF
:1002DC00486F6C6120636F6D6F20657374612A2A9F
:1002EC002A2A2A2A2A2A2A2A2A2A2A2A2A2A002096
:1002FC00202020202020202020436F6C6F717565FA
:10030C0020312070617261206C65657220706F7491
:10031C00656E63696F6D6574726F002020202020FC
:10032C002020202020436F6C6F7175652032207067
:10033C0061726120656E766961722041534349494F
:10034C000A0D000A0D2D2D2D2D2D2D2D2D2D2D2D84
:10035C002D2D2D2D2D2D2D2D2D2D2D2D2D2D2D2DC1
:10036C002D2D2D2D2D2D2D2D2D2D2D2D2D2D2D0AD4
:10037C000D004C6563747572612061637475616CFA
:10038C0020646520706F74656E63696F6D6574723F
:10039C006F2065733A003235350A0D000A0D496E2F
:1003AC00677265736520756E2076616C6F720A0DCD
:0203BC0000003F
:00000001FF
