S00C00004C4142362E7372656313
S11300000C9434000C9451000C9451000C94510045
S11300100C9451000C9451000C9451000C94510018
S11300200C9451000C9451000C9451000C94510008
S11300300C9451000C9451000C9451000C945100F8
S11300400C9451000C9451000C949D000C9451009C
S11300500C9451000C9451000C9451000C945100D8
S11300600C9451000C94510011241FBECFEFD8E022
S1130070DEBFCDBF11E0A0E0B1E0EEE9F1E002C0E7
S113008005900D92A430B107D9F721E0A4E0B1E0C6
S113009001C01D92A530B207E1F70E9486000C94BE
S11300A0CD000C9400008AB18E7F8AB98AB1826037
S11300B08AB91092C000E1ECF0E010828081886976
S11300C08083E2ECF0E0108280818660808387E6A2
S11300D090E09093C5008093C40008959091C0006F
S11300E095FFFCCF8093C6000895AC0120E007C0C3
S11300F09091C00095FFFCCF3093C6002F5FFA01AA
S1130100E20FF11D30813111F3CF08958FEF84B9DF
S113011015B80E945300789480E091E00E94750025
S11301208AE00E946E008DE00E946E008FE39CE9DD
S11301300197F1F700C00000F9CF1F920F920FB69C
S11301400F9211242F933F934F935F936F937F9359
S11301508F939F93AF93BF93EF93FF93E6ECF0E0FD
S11301608081809304018091040180838AE00E944D
S11301706E008DE00E946E00FF91EF91BF91AF91F0
S11301809F918F917F916F915F914F913F912F91AB
S11101900F900FBE0F901F901895F894FFCF9C
S107019E5556470067
S9030000FC
