S00C00004C4142362E7372656313
S11300000C9434000C9446000C9446000C94460066
S11300100C9446000C9446000C9446000C94460044
S11300200C9446000C9446000C9446000C94460034
S11300300C9446000C9446000C9446000C94460024
S11300400C9446000C9446000C948C000C944600CE
S11300500C9446000C9446000C9446000C94460004
S11300600C9446000C94460011241FBECFEFD8E038
S1130070DEBFCDBF21E0A0E0B1E001C01D92A13000
S1130080B207E1F70E946A000C94A4000C940000EB
S11300908AB18E7F8AB98AB182608AB91092C0000F
S11300A0E1ECF0E01082808188698083E2ECF0E08A
S11300B0108280818660808387E690E09093C500FB
S11300C08093C40008959091C00095FFFCCF809365
S11300D0C60008958FEF84B915B80E94480078943B
S11300E088E40E9463008FE40E9463008CE40E9411
S11300F0630081E40E9463008DE40E94630085E54F
S11301000E9463008AE00E9463008FE39CE90197E8
S1130110F1F700C00000F9CF1F920F920FB60F92B3
S113012011248F93EF93FF93E6ECF0E080818093AA
S11301300001809100018083FF91EF918F910F90D6
S10F01400FBE0F901F901895F894FFCF8D
S9030000FC
